:100000000C9463000C948B000C948B000C948B006C
:100010000C948B000C948B000C948B000C948B0034
:100020000C948B000C948B000C948B000C944A0362
:100030000C948B000C948B000C948B000C948B0014
:100040000C943E050C948B000C94B6080C94E808B4
:100050000C948B000C948B000C948B000C948B00F4
:100060000C948B000C948B0000000008000201002F
:100070000003040700000000000000000102040863
:100080001020408001020408102001020408102002
:10009000040404040404040402020202020203032E
:1000A00003030303000000002300260029000000D2
:1000B0000000250028002B0000000000240027007D
:1000C0002A000603180911241FBECFEFD8E0DEBFB7
:1000D000CDBF11E0A0E0B1E0E2E6F5E102C005909D
:1000E0000D92AA31B107D9F721E0AAE1B1E001C030
:1000F0001D92A13FB207E1F710E0C6ECD0E004C0CA
:100100002297FE010E949C0AC23CD107C9F70E94B7
:10011000220A0C94AF0A0C940000CF92DF92EF9267
:10012000FF920F931F93E82FF92F05C0015011097B
:100130002109310961F1908196239417B9F305C023
:10014000015011092109310911F19081962394136D
:10015000F7CFC12CD12CE12CF12C0AC08FEFC81A9B
:10016000D80AE80AF80A0C151D052E053F0579F096
:1001700080818623841791F36C2D7D2D8E2D9F2DEC
:100180001F910F91FF90EF90DF90CF90089560E066
:1001900070E080E090E01F910F91FF90EF90DF9072
:1001A000CF90089582E0809320018FEF809321010A
:1001B00010921F0110921E0126E040E855E260E017
:1001C00070E084E591E00E94540840ED57E060E063
:1001D00070E084E591E00E94B10969E070E082E29C
:1001E00091E00E94A00461E083E00E94AD0661E01E
:1001F00086E00E94AD0661E084E00E94AD0661E009
:1002000085E00E94AD0661E087E00E94AD0661E0F6
:1002100088E00E94AD0660E084E00E94E60660E0AF
:1002200085E00E94E60660E085E00E94E60660E068
:1002300088E00E94E6066091210170E083E00E9460
:1002400025066091210170E086E00C94250683303C
:10025000D1F028F4813079F0823099F131C08430C6
:10026000D1F0853069F58093200160E084E00E9440
:10027000E60661E020C08093200161E084E00E94F6
:10028000E60660E018C08093200160E084E00E94F0
:10029000E60661E007C08093200161E084E00E94EF
:1002A000E60660E085E00E94E60660E087E00E94E6
:1002B000E60661E015C085E00E94E60661E00CC03C
:1002C00082E08093200160E084E00E94E60660E026
:1002D00085E00E94E60660E087E00E94E60660E0B6
:1002E00088E00C94E6060E94270168EE73E080E047
:1002F00090E00E94B70582E00C942701833069F0FA
:1003000030F4813041F0823051F484E609C0843009
:1003100031F488EC05C082E303C086E901C08FEFA9
:10032000809321016091210170E083E00E94250605
:100330006091210170E086E00C94250680912101F6
:10034000863971F028F4823349F0843679F00CC094
:10035000883C41F08F3F41F485E0089581E00895A5
:1003600083E0089584E0089580E0089582E0089590
:10037000CF93DF93E0915401F0915501C62FD0E067
:100380000280F381E02DAE01BC0184E591E0099586
:100390008C179D0774F480912001823019F082E05F
:1003A0000E94270180911E01811110921E0110925E
:1003B0001F01DF91CF9108959FEF980F943B40F478
:1003C000682F70E082E291E00E94D90481E00895F4
:1003D00080E0089560E08BE00E94E60682E090E015
:1003E0000E94DF0561E08BE00E94E6068AE090E073
:1003F0000E94DF0560E08BE00E94E60620E432E424
:100400004FE050E061E08AE00E9445072AE330E0D7
:1004100040E050E00E94700A2F3F31054105510530
:1004200009F014F4822F08958FEF0895CF93DF938E
:1004300080912001823019F082E00E94270189E03A
:100440000E941C078A35910531F06AE570E082E26E
:1004500091E00E94D9040E94880560931A0170936C
:100460001B0180931C0190931D0184EB0E94DC0111
:100470000E94EA01D82F81E00E94DC010E94EA017B
:10048000C82F8AE50E94DC010E94EA018F3120F426
:10049000DF3140F4CF3198F08D1720F08C1740F009
:1004A00081E00EC0CD1710F484E005C08C1760F415
:1004B000DC1750F485E0DF91CF910C94730183E059
:1004C000DF91CF910C942701DF91CF910895809116
:1004D0002001823019F082E00E94270189E00E9409
:1004E0001C078A35910531F06AE570E082E291E0FF
:1004F0000C94D9040895CF93DF9300D0CDB7DEB725
:10050000982F862F20911F01211102C09A30E1F50A
:1005100024E6290F2983943191F018F49A3031F0B0
:1005200033C09631A9F0993109F12EC0853661F5B5
:100530000E949E018A8381E080931F0120C09091D8
:100540001E01911121C00E9427018091200116C037
:10055000813029F480931E010E94160204C010927B
:100560001E010E94670280911E0108C090911E0129
:10057000911102C00E947E010E949E018A8362E066
:10058000CE0101960E94B8010F900F90DF91CF919C
:100590000895CF93DF9380912001833019F482E096
:1005A0000E9427010E94EA01909120018E3120F5DE
:1005B000923019F082E00E94270184EB0E94DC0156
:1005C0000E94EA01D82F81E00E94DC010E94EA012A
:1005D000C82F8AE50E94DC01DF3118F4CF3128F4FE
:1005E00009C0CD1710F484E001C085E0DF91CF9100
:1005F0000C94730183E003C0923029F481E0DF9111
:10060000CF910C942701DF91CF91089582E291E080
:100610000C9406040F931F93CF93DF931F92CDB7D3
:10062000DEB784E591E00E947107892BA1F042E0DA
:1006300050E0BE016F5F7F4F84E591E00E94B709F3
:10064000823029F46A8189810E947B0204C084E59A
:1006500091E00E94CD0780911E018823A9F00E949D
:10066000880500911A0110911B0120911C01309105
:100670001D01601B710B820B930B6B3F7105810594
:10068000910510F00E94C9020F90DF91CF911F9148
:100690000F9108951F920F920FB60F9211242F936E
:1006A0003F934F935F936F937F938F939F93AF93FA
:1006B000BF93EF93FF938091260187FF05C01092AF
:1006C0008500109284001AC020912601332727FD4F
:1006D00030958091250190E0281739077CF48091AE
:1006E0002601992787FD9095FC01EE0FFF1FE80F6B
:1006F000F91FE95DFE4F808186FD15C080912601BE
:100700008F5F8093260120912601332727FD3095A6
:100710008091250190E028173907BCF480912601CB
:100720008C305CF112C080912601992787FD90954D
:10073000FC01EE0FFF1FE80FF91FE95DFE4F8081FE
:1007400060E08F730E94E606D9CF8091840090917B
:100750008500049680349C4918F480E49CE905C027
:1007600080918400909185000496909389008093F5
:1007700088008FEF8093260138C02091840030914B
:10078000850080912601992787FD9095FC01EE0F49
:10079000FF1FE80FF91FE95DFE4F81819281820FF3
:1007A000931F909389008093880080912601992758
:1007B00087FD9095FC01EE0FFF1FE80FF91FE95D23
:1007C000FE4F808186FF11C080912601992787FD09
:1007D0009095FC01EE0FFF1FE80FF91FE95DFE4F3A
:1007E000808161E08F730E94E606FF91EF91BF91D7
:1007F000AF919F918F917F916F915F914F913F91B9
:100800002F910F900FBE0F901F90189520912501EA
:100810002C30A0F431E0320F30932501FC0120830D
:10082000822F90E0FC01EE0FFF1FE80FF91FE95D3A
:10083000FE4F88EB9BE09283818308952FEFFC01AC
:1008400020830895DF92EF92FF920F931F93CF932F
:10085000DF93EC01D62E7A01890188818C3008F073
:1008600066C061E08D2D0E94AD068881A82FB0E0A2
:10087000FD01EE0FFF1FEA0FFB1FE95DFE4F2D2D5F
:100880002F739081907C922B908360E272E06E19BE
:100890007F0977FF02C06D5F7F4F759567957595EE
:1008A0006795698340E659E0401B510B57FF02C032
:1008B0004D5F5F4F55954795559547954A836CE039
:1008C0000E94420A9CE0899FB001112420E030E0A0
:1008D000A901460F571FFA01EE0FFF1FE40FF51F86
:1008E000E95DFE4F908196FD16C02F5F3F4F2C3083
:1008F000310571F781110FC01092800082E0809362
:1009000081001092850010928400B19A80916F004E
:10091000826080936F00888190E0FC01EE0FFF1FE2
:10092000E80FF91FE95DFE4F808180648083888134
:10093000DF91CF911F910F91FF90EF90DF9008957D
:1009400020E639E040E252E00C942204FC01808170
:100950008C3070F5918128E830E0291B310997FD32
:100960003395220F331F220F331F621773077CF05A
:10097000928128E532E0291B310997FD3395220F3A
:10098000331F220F331F621773070CF49B01225091
:100990003109220F331F4FB7F89490E0FC01EE0F9E
:1009A000FF1FE80FF91FE95DFE4F328321834FBF20
:1009B00008954F925F926F927F92AF92BF92CF92C3
:1009C000DF92EF92FF920F931F93CF93DF93EC018F
:1009D000603282E078070CF040C077FD06C0653BCE
:1009E00071052CF064EB70E002C060E070E089817A
:1009F00028E830E0281B310987FD3395220F331F8B
:100A0000220F331F5901CC24B7FCC094DC2C88275B
:100A100077FD8095982F2A8148E552E0421B5109C5
:100A200027FD5395440F551F440F551F2A01662477
:100A300057FC6094762C7F926F925F924F9214EBEA
:100A4000E12EF12C00E010E020E030E0A9010E944E
:100A5000DA090F900F900F900F90CE01DF91CF9198
:100A60001F910F91FF90EF90DF90CF90BF90AF90CC
:100A70007F906F905F904F900C94A6041F920F92FE
:100A80000FB60F9211242F933F938F939F93AF93A1
:100A9000BF9380914C0190914D01A0914E01B09176
:100AA0004F0130914B0123E0230F2D3720F40196A5
:100AB000A11DB11D05C026E8230F0296A11DB11D81
:100AC00020934B0180934C0190934D01A0934E01D4
:100AD000B0934F018091500190915101A09152012A
:100AE000B09153010196A11DB11D809350019093C7
:100AF0005101A0935201B0935301BF91AF919F91C7
:100B00008F913F912F910F900FBE0F901F901895CE
:100B10002FB7F89460914C0170914D0180914E0176
:100B200090914F012FBF08953FB7F89480915001E5
:100B300090915101A0915201B091530126B5A89B0B
:100B400005C02F3F19F00196A11DB11D3FBF6627BB
:100B5000782F892F9A2F620F711D811D911D42E000
:100B6000660F771F881F991F4A95D1F70895CF9276
:100B7000DF92EF92FF92CF93DF936B017C010E9493
:100B80009405EB01C114D104E104F10489F00E9441
:100B9000310A0E9494056C1B7D0B683E734090F3F4
:100BA00081E0C81AD108E108F108C851DC4FEACF4A
:100BB000DF91CF91FF90EF90DF90CF90089582303A
:100BC000910538F0880F991F880F991F0597019795
:100BD000F1F70895789484B5826084BD84B581600E
:100BE00084BD85B5826085BD85B5816085BDEEE635
:100BF000F0E0808181608083E1E8F0E01082808114
:100C000082608083808181608083E0E8F0E0808181
:100C100081608083E1EBF0E0808184608083E0EBA1
:100C2000F0E0808181608083EAE7F0E08081846089
:100C300080838081826080838081816080838081E5
:100C4000806880831092C10008951F93CF93DF9333
:100C5000182FEB0161E00E94AD06209711F460E0CF
:100C600004C0CF3FD10539F461E0812FDF91CF91EE
:100C70001F910C94E606E12FF0E0E859FF4FE49154
:100C8000E330F9F048F4E130B9F0E230A1F584B591
:100C9000806284BDC8BD34C0E730E9F0E83019F1A6
:100CA000E43049F580918000806280938000D09389
:100CB0008B00C0938A0024C084B5806884BDC7BD02
:100CC0001FC080918000806880938000D09389004D
:100CD000C093880015C08091B00080688093B000F8
:100CE000C093B3000DC08091B00080628093B000CB
:100CF000C093B40005C0C038D1050CF0B5CFAFCF5C
:100D0000DF91CF911F910895833081F028F48130D5
:100D100099F08230A1F008958730A9F08830B9F0B9
:100D20008430D1F4809180008F7D03C08091800059
:100D30008F7780938000089584B58F7702C084B543
:100D40008F7D84BD08958091B0008F7703C080911E
:100D5000B0008F7D8093B0000895CF93DF9390E033
:100D6000FC01E458FF4F2491FC01E057FF4F8491B0
:100D7000882349F190E0880F991FFC01E854FF4F48
:100D8000A591B49182559F4FFC01C591D4919FB715
:100D9000611108C0F8948C91209582238C938881EE
:100DA00082230AC0623051F4F8948C91322F30952E
:100DB00083238C938881822B888304C0F8948C9140
:100DC000822B8C939FBFDF91CF9108950F931F9338
:100DD000CF93DF931F92CDB7DEB7282F30E0F90114
:100DE000E859FF4F8491F901E458FF4F1491F9013C
:100DF000E057FF4F04910023C9F0882321F0698355
:100E00000E9484066981E02FF0E0EE0FFF1FE2559B
:100E1000FF4FA591B4919FB7F8948C91611103C0D5
:100E20001095812301C0812B8C939FBF0F90DF9180
:100E3000CF911F910F910895CF93DF93282F30E02A
:100E4000F901E859FF4F8491F901E458FF4FD4911B
:100E5000F901E057FF4FC491CC2391F081110E941A
:100E60008406EC2FF0E0EE0FFF1FEC55FF4FA5912D
:100E7000B4912C912D2381E090E021F480E002C018
:100E800080E090E0DF91CF9108950F931F93762F2C
:100E900090E0FC01E458FF4F6491FC01E057FF4FE4
:100EA000E4917111762FF0E0EE0FFF1FEC55FF4F2C
:100EB0008591949189019A013F70472F0E948D007E
:100EC000611571058105910531F06F5F7F4F8F4F7F
:100ED0009F4F9F7003C060E070E0CB011F910F91A6
:100EE0000895FC01818D228D90E0805C9F4F821BD4
:100EF00091098F7399270895FC01918D828D981720
:100F000031F0828DE80FF11D858D90E008958FEF0F
:100F10009FEF0895FC01918D828D981761F0828D6D
:100F2000DF01A80FB11D5D968C91928D9F5F9F731D
:100F3000928F90E008958FEF9FEF08958EE099E0F3
:100F4000892B49F080E090E0892B29F00E940E095E
:100F500081110C9400000895FC01848DDF01A80F1D
:100F6000B11DA35ABF4F2C91848D90E001968F73D1
:100F70009927848FA689B7892C93A089B1898C91F0
:100F800080648C93938D848D981306C00288F389B6
:100F9000E02D80818F7D80830895CF93DF93EC01D6
:100FA000888D8823C9F0EA89FB89808185FD05C089
:100FB000A889B9898C9186FD0FC00FB607FCF5CFC3
:100FC000808185FFF2CFA889B9898C9185FFEDCF0B
:100FD000CE010E94AC07E7CFDF91CF910895CF9269
:100FE000DF92FF920F931F93CF93DF931F92CDB7A2
:100FF000DEB76C0181E0D60158968C9358975B96CA
:101000009C915B975C968C915C97981307C0509667
:10101000ED91FC915197808185FD2EC0F601038DE5
:1010200010E00F5F1F4F0F731127F02EF601848D14
:10103000F81211C00FB607FCF9CFD6015096ED910A
:10104000FC915197808185FFF1CFC60169830E9491
:10105000AC076981EBCF838DE80FF11DE35AFF4F99
:101060006083D6015B960C935B975296ED91FC9151
:101070005397808180620CC0D6015696ED91FC9109
:10108000579760835096ED91FC91519780818064D1
:10109000808381E090E00F90DF91CF911F910F91BD
:1010A000FF90DF90CF900895BF92CF92DF92EF92A2
:1010B000FF92CF93DF93EC016A017B01B22EE889A6
:1010C000F98982E08083411581EE58076105710539
:1010D000A1F060E079E08DE390E0A70196010E9425
:1010E0004E0A2150310941095109569547953795C6
:1010F0002795211580E1380798F0E889F989108251
:1011000060E874E88EE190E0A70196010E944E0A23
:101110002150310941095109569547953795279531
:10112000EC85FD853083EE85FF852083188EEC8964
:10113000FD89B082EA89FB89808180618083EA89A8
:10114000FB89808188608083EA89FB89808180684F
:101150008083EA89FB8980818F7D8083DF91CF91B5
:10116000FF90EF90DF90CF90BF9008951F920F9265
:101170000FB60F9211242F938F939F93EF93FF93AA
:10118000E0916401F09165018081E0916A01F09144
:101190006B0182FD12C0908180916D018F5F8F7312
:1011A00020916E01821751F0E0916D01F0E0EC5A50
:1011B000FE4F958F80936D0101C08081FF91EF916B
:1011C0009F918F912F910F900FBE0F901F901895A8
:1011D0001F920F920FB60F9211242F933F934F93AC
:1011E0005F936F937F938F939F93AF93BF93EF938F
:1011F000FF9384E591E00E94AC07FF91EF91BF91CE
:10120000AF919F918F917F916F915F914F913F919E
:101210002F910F900FBE0F901F90189584E591E0CD
:101220000E94710721E0892B09F420E0822F0895A4
:10123000109257011092560188EE93E0A0E0B0E0C2
:101240008093580190935901A0935A01B0935B0188
:101250008EE091E0909355018093540185EC90E0ED
:10126000909361018093600184EC90E0909363011E
:101270008093620180EC90E090936501809364011B
:1012800081EC90E0909367018093660182EC90E09E
:10129000909369018093680186EC90E090936B01D4
:1012A00080936A0110926D0110926E0110926F018D
:1012B000109270010895CF92DF92EF92FF920F93F8
:1012C0001F93CF93DF937C016A01EB0100E010E0F4
:1012D0000C151D0571F06991D701ED91FC910190FC
:1012E000F081E02DC7010995892B19F00F5F1F4F81
:1012F000EFCFC801DF91CF911F910F91FF90EF9039
:10130000DF90CF9008950F931F93CF93DF93EC015D
:101310000E948805688779878A879B87E881F98199
:101320000680F781E02DCE01099597FF15C00E9438
:101330008805088519852A853B85601B710B820B02
:10134000930B0C811D812E813F81601771078207ED
:10135000930720F38FEF9FEFDF91CF911F910F91B4
:101360000895FC0144835583668377830895CF9263
:10137000DF92EF92FF920F931F93CF93DF937C0145
:101380006A01EB0100E010E00C151D0549F0C701F2
:101390000E94830997FD04C089930F5F1F4FF4CF0C
:1013A000C801DF91CF911F910F91FF90EF90DF90D7
:1013B000CF9008954F925F926F927F92AF92BF92BB
:1013C000CF92DF92EF92FF920F931F93CF93DF9311
:1013D000CDB7DEB729013A01621B730B840B950B65
:1013E00029893A894B895C892A193B094C095D098D
:1013F000298B3A8B4B8B5C8B9B01AC0169897A8979
:101400008B899C890E94320AE418F508060917099D
:10141000A80197010E94700A2A0D3B1D4C1D5D1DFD
:10142000CA01B901DF91CF911F910F91FF90EF9009
:10143000DF90CF90BF90AF907F906F905F904F9074
:10144000089508950E94EA050E94210A0E94D20090
:10145000CEE9D7E00E940A032097E1F30E949E079D
:10146000F9CF0895DB018F939F930E948F0ABF915C
:10147000AF91A29F800D911DA39F900DB29F900DE3
:1014800011240895991B79E004C0991F961708F05C
:10149000961B881F7A95C9F780950895A1E21A2EA8
:1014A000AA1BBB1BFD010DC0AA1FBB1FEE1FFF1F08
:1014B000A217B307E407F50720F0A21BB30BE40B58
:1014C000F50B661F771F881F991F1A9469F760959F
:1014D0007095809590959B01AC01BD01CF01089559
:1014E000052E97FB1EF400940E94870A57FD07D033
:1014F0000E944E0A07FC03D04EF40C94870A5095C4
:101500004095309521953F4F4F4F5F4F08959095EF
:101510008095709561957F4F8F4F9F4F08950E94E2
:10152000A00AA59F900DB49F900DA49F800D911DC2
:1015300011240895EE0FFF1F0590F491E02D0994FA
:10154000A29FB001B39FC001A39F700D811D112404
:10155000911DB29F700D811D1124911D0895F89465
:02156000FFCFBB
:101562000000F10180000100000000000000EF0710
:0A1572005B0971078A077C07CD07AB
:00000001FF
