:100000000C9463000C948B000C948B000C948B006C
:100010000C948B000C948B000C948B000C948B0034
:100020000C948B000C948B000C948B000C94D603D6
:100030000C948B000C948B000C948B000C948B0014
:100040000C94CA050C948B000C9442090C9474090E
:100050000C948B000C948B000C948B000C948B00F4
:100060000C948B000C948B0000000008000201002F
:100070000003040700000000000000000102040863
:100080001020408001020408102001020408102002
:10009000040404040404040402020202020203032E
:1000A00003030303000000002300260029000000D2
:1000B0000000250028002B0000000000240027007D
:1000C0002A00F101A40911241FBECFEFD8E0DEBF42
:1000D000CDBF11E0A0E0B1E0EEE6F6E102C0059090
:1000E0000D92AA31B107D9F721E0AAE1B1E001C030
:1000F0001D92A13FB207E1F710E0C6ECD0E004C0CA
:100100002297FE010E94220BC23CD107C9F70E9430
:10011000A80A0C94350B0C940000CF92DF92EF925A
:10012000FF920F931F93E82FF92F05C0015011097B
:100130002109310961F1908196239417B9F305C023
:10014000015011092109310911F19081962394136D
:10015000F7CFC12CD12CE12CF12C0AC08FEFC81A9B
:10016000D80AE80AF80A0C151D052E053F0579F096
:1001700080818623841791F36C2D7D2D8E2D9F2DEC
:100180001F910F91FF90EF90DF90CF90089560E066
:1001900070E080E090E01F910F91FF90EF90DF9072
:1001A000CF90089582E0809320018FEF809321010A
:1001B00010921F0110921E0126E040E855E260E017
:1001C00070E084E591E00E94E00869E070E082E27E
:1001D00091E00E942C0561E083E00E94390761E014
:1001E00086E00E94390761E084E00E94390761E0FF
:1001F00085E00E94390761E087E00E94390761E0ED
:1002000088E00E94390760E084E00E94720760E0A5
:1002100085E00E94720760E085E00E94720760E05E
:1002200088E00E9472076091210170E083E00E94E3
:10023000B1066091210170E086E00E94B10661E0A4
:1002400089E00E94390760E08CE00E94390761E094
:100250008DE00C9439078330D1F028F4813079F0A7
:10026000823099F131C08430D1F0853069F58093C6
:10027000200160E084E00E94720761E020C080936A
:10028000200161E084E00E94720760E018C0809362
:10029000200160E084E00E94720761E007C0809363
:1002A000200161E084E00E94720760E085E00E9426
:1002B000720760E087E00E94720761E015C085E088
:1002C0000E94720761E00CC082E08093200160E030
:1002D00084E00E94720760E085E00E94720760E09F
:1002E00087E00E94720760E088E00C947207833018
:1002F00069F030F4813041F0823051F484E609C075
:10030000843031F488EC05C082E303C086E901C083
:100310008FEF809321016091210170E083E00E94C2
:10032000B1066091210170E086E00C94B1068091E5
:100330002101863971F028F4823349F0843679F04E
:100340000CC0883C41F08F3F41F485E0089581E086
:10035000089583E0089584E0089580E0089582E0A0
:1003600008959FEF980F943B70F4682F70E082E23D
:1003700091E00E94650564E170E080E090E00E94F9
:10038000430681E0089580E0089560E08DE00E94DA
:10039000720782E090E00E946B0661E08DE00E94AF
:1003A00072078AE090E00E946B0660E08DE00E9498
:1003B000720720E432E44FE050E061E08CE00E94FC
:1003C000D1072AE330E040E050E00E94F60A2F3FD8
:1003D00031054105510509F014F4822F08958FEF7E
:1003E000089582E291E00C9492040F931F93CF93AF
:1003F000DF93E0915401F0915501C62FD0E00280C7
:10040000F381E02DAE01BC0184E591E009958C01FA
:1004100084E591E00E9459080C171D0774F480913F
:100420002001823019F082E00E942B0180911E0190
:10043000811110921E0110921F01DF91CF911F9127
:100440000F910895CF93DF9300D0CDB7DEB78330FF
:10045000D1F028F4813079F08230D1F138C0843085
:1004600029F18530A1F58093200160E084E00E94AD
:10047000720761E023C08093200161E084E00E9464
:10048000720760E01BC08093200160E084E00E945E
:10049000720761E085E00E94720760E087E00E94D9
:1004A000720761E088E00E9472072AC080932001F1
:1004B00061E084E00E94720760E0ECCF85E00E947A
:1004C000720761E087E00E94720760E0EBCF82E094
:1004D0008093200160E084E00E94720760E085E084
:1004E0000E94720760E087E00E94720760E088E087
:1004F0000E94720764E170E080E090E00E94430691
:1005000088E78983809120018A8362E0CE01019689
:100510000E94F5010F900F90DF91CF9108950E94F6
:10052000220268EE73E080E090E00E94430682E0E1
:100530000C942202CF93DF9380912001823019F036
:1005400082E00E94220289E00E94A8078A35910574
:1005500031F06AE570E082E291E00E9465050E9458
:10056000140660931A0170931B0180931C019093F1
:100570001D0184EB0E94B1010E94C501D82F81E0CA
:100580000E94B1010E94C501C82F8AE50E94B101F5
:100590000E94C5018F3120F4DF3140F4CF3198F053
:1005A0008D1720F08C1740F081E00EC0CD1710F4AD
:1005B00084E005C08C1760F4DC1750F485E0DF910F
:1005C000CF910C948F0283E0DF91CF910C942202A3
:1005D000DF91CF91089580912001823019F082E05F
:1005E0000E94220289E00E94A8078A35910531F015
:1005F0006AE570E082E291E00C9465050895CF937E
:10060000DF9380912001833019F482E00E9422025E
:100610000E94C501909120018E3120F5923019F091
:1006200082E00E94220284EB0E94B1010E94C50177
:10063000D82F81E00E94B1010E94C501C82F8AE530
:100640000E94B101DF3118F4CF3128F409C0CD1771
:1006500010F484E001C085E0DF91CF910C948F020B
:1006600083E003C0923029F481E0DF91CF910C94B4
:100670002202DF91CF9108951F93CF93DF9300D093
:10068000CDB7DEB7982F162F80911F01811103C0BF
:100690009A3009F049C084E6890F8983943191F03A
:1006A00018F49A3031F040C09531D1F0963169F1AB
:1006B0003BC01536C9F50E9497018A8381E080937B
:1006C0001F012DC080911E0181112EC01A8362E08E
:1006D000CE0101960E94F501812F0E942B0124C0BA
:1006E000113061F480911E01882319F010921E01CF
:1006F00002C010931E010E949A0204C010921E01B3
:100700000E94EB0280911E0109C080911E0181119F
:1007100003C0812F0E9477010E9497018A8362E0C3
:10072000CE0101960E94F5010F900F90DF91CF91BD
:100730001F9108950F931F93CF93DF9300D0CDB7F0
:10074000DEB784E591E00E94FD07892B79F042E055
:1007500050E0BE016F5F7F4F84E591E00E943D0A4B
:10076000823021F46A8189810E943C0380911E01BC
:100770008823A9F00E94140600911A0110911B0110
:1007800020911C0130911D01601B710B820B930B9A
:100790006B3F71058105910510F00E94FF020F90DB
:1007A0000F90DF91CF911F910F9108951F920F929B
:1007B0000FB60F9211242F933F934F935F936F9334
:1007C0007F938F939F93AF93BF93EF93FF9380910A
:1007D000260187FF05C010928500109284001AC080
:1007E00020912601332727FD30958091250190E047
:1007F000281739077CF480912601992787FD909569
:10080000FC01EE0FFF1FE80FF91FE95DFE4F80812D
:1008100086FD15C0809126018F5F8093260120916F
:100820002601332727FD30958091250190E0281778
:100830003907BCF4809126018C305CF112C08091A4
:100840002601992787FD9095FC01EE0FFF1FE80F09
:10085000F91FE95DFE4F808160E08F730E9472078F
:10086000D9CF8091840090918500049680349C4972
:1008700018F480E49CE905C0809184009091850083
:10088000049690938900809388008FEF80932601CF
:1008900038C02091840030918500809126019927ED
:1008A00087FD9095FC01EE0FFF1FE80FF91FE95D32
:1008B000FE4F81819281820F931F909389008093D4
:1008C000880080912601992787FD9095FC01EE0F05
:1008D000FF1FE80FF91FE95DFE4F808186FF11C001
:1008E00080912601992787FD9095FC01EE0FFF1F4F
:1008F000E80FF91FE95DFE4F808161E08F730E9470
:100900007207FF91EF91BF91AF919F918F917F916E
:100910006F915F914F913F912F910F900FBE0F906C
:100920001F901895209125012C30A0F431E0320F52
:1009300030932501FC012083822F90E0FC01EE0F13
:10094000FF1FE80FF91FE95DFE4F88EB9BE09283E4
:10095000818308952FEFFC0120830895DF92EF92A9
:10096000FF920F931F93CF93DF93EC01D62E7A0162
:10097000890188818C3008F066C061E08D2D0E946D
:1009800039078881A82FB0E0FD01EE0FFF1FEA0FA5
:10099000FB1FE95DFE4F2D2D2F739081907C922BD4
:1009A000908360E272E06E197F0977FF02C06D5F8D
:1009B0007F4F7595679575956795698340E659E012
:1009C000401B510B57FF02C04D5F5F4F5595479538
:1009D000559547954A836CE00E94C80A9CE0899F20
:1009E000B001112420E030E0A901460F571FFA01A1
:1009F000EE0FFF1FE40FF51FE95DFE4F908196FD9E
:100A000016C02F5F3F4F2C30310571F781110FC099
:100A10001092800082E080938100109285001092F5
:100A20008400B19A80916F00826080936F0088810A
:100A300090E0FC01EE0FFF1FE80FF91FE95DFE4F8C
:100A40008081806480838881DF91CF911F910F9195
:100A5000FF90EF90DF90089520E639E040E252E009
:100A60000C94AE04FC0180818C3070F5918128E8F3
:100A700030E0291B310997FD3395220F331F220FD8
:100A8000331F621773077CF0928128E532E0291B3F
:100A9000310997FD3395220F331F220F331F621741
:100AA00073070CF49B0122503109220F331F4FB7FB
:100AB000F89490E0FC01EE0FFF1FE80FF91FE95DCD
:100AC000FE4F328321834FBF08954F925F926F9202
:100AD0007F92AF92BF92CF92DF92EF92FF920F93ED
:100AE0001F93CF93DF93EC01603282E078070CF024
:100AF00040C077FD06C0653B71052CF064EB70E0EB
:100B000002C060E070E0898128E830E0281B3109EC
:100B100087FD3395220F331F220F331F5901CC2439
:100B2000B7FCC094DC2C882777FD8095982F2A810C
:100B300048E552E0421B510927FD5395440F551FCC
:100B4000440F551F2A01662457FC6094762C7F922F
:100B50006F925F924F9214EBE12EF12C00E010E0C7
:100B600020E030E0A9010E94600A0F900F900F90E2
:100B70000F90CE01DF91CF911F910F91FF90EF90D9
:100B8000DF90CF90BF90AF907F906F905F904F902D
:100B90000C9432051F920F920FB60F9211242F93CF
:100BA0003F938F939F93AF93BF9380914C0190910C
:100BB0004D01A0914E01B0914F0130914B0123E0C6
:100BC000230F2D3720F40196A11DB11D05C026E885
:100BD000230F0296A11DB11D20934B0180934C0160
:100BE00090934D01A0934E01B0934F01809150011D
:100BF00090915101A0915201B09153010196A11D14
:100C0000B11D8093500190935101A0935201B09374
:100C10005301BF91AF919F918F913F912F910F9071
:100C20000FBE0F901F9018952FB7F89460914C014C
:100C300070914D0180914E0190914F012FBF089509
:100C40003FB7F8948091500190915101A0915201C9
:100C5000B091530126B5A89B05C02F3F19F001960E
:100C6000A11DB11D3FBF6627782F892F9A2F620FD4
:100C7000711D811D911D42E0660F771F881F991F0E
:100C80004A95D1F70895CF92DF92EF92FF92CF93DA
:100C9000DF936B017C010E942006EB01C114D1049B
:100CA000E104F10489F00E94B70A0E9420066C1B3F
:100CB0007D0B683E734090F381E0C81AD108E108CB
:100CC000F108C851DC4FEACFDF91CF91FF90EF9050
:100CD000DF90CF9008958230910538F0880F991FEA
:100CE000880F991F05970197F1F70895789484B5B7
:100CF000826084BD84B5816084BD85B5826085BD18
:100D000085B5816085BDEEE6F0E0808181608083FD
:100D1000E1E8F0E0108280818260808380818160E0
:100D20008083E0E8F0E0808181608083E1EBF0E0A7
:100D3000808184608083E0EBF0E08081816080834B
:100D4000EAE7F0E080818460808380818260808334
:100D50008081816080838081806880831092C1005F
:100D600008951F93CF93DF93182FEB0161E00E944A
:100D70003907209711F460E004C0CF3FD10539F462
:100D800061E0812FDF91CF911F910C947207E12FC9
:100D9000F0E0E859FF4FE491E330F9F048F4E13036
:100DA000B9F0E230A1F584B5806284BDC8BD34C01D
:100DB000E730E9F0E83019F1E43049F5809180003E
:100DC000806280938000D0938B00C0938A0024C0FF
:100DD00084B5806884BDC7BD1FC0809180008068D5
:100DE00080938000D0938900C093880015C08091C3
:100DF000B00080688093B000C093B3000DC08091B4
:100E0000B00080628093B000C093B40005C0C038C9
:100E1000D1050CF0B5CFAFCFDF91CF911F910895E1
:100E2000833081F028F4813099F08230A1F0089568
:100E30008730A9F08830B9F08430D1F480918000F7
:100E40008F7D03C0809180008F778093800008950C
:100E500084B58F7702C084B58F7D84BD089580915D
:100E6000B0008F7703C08091B0008F7D8093B00079
:100E70000895CF93DF9390E0FC01E458FF4F249155
:100E8000FC01E057FF4F8491882349F190E0880FDF
:100E9000991FFC01E854FF4FA591B49182559F4FD3
:100EA000FC01C591D4919FB7611108C0F8948C9151
:100EB000209582238C93888182230AC0623051F46A
:100EC000F8948C91322F309583238C938881822BD8
:100ED000888304C0F8948C91822B8C939FBFDF9100
:100EE000CF9108950F931F93CF93DF931F92CDB7A8
:100EF000DEB7282F30E0F901E859FF4F8491F9015E
:100F0000E458FF4F1491F901E057FF4F049100237B
:100F1000C9F0882321F069830E9410076981E02FBE
:100F2000F0E0EE0FFF1FE255FF4FA591B4919FB780
:100F3000F8948C91611103C01095812301C0812B1D
:100F40008C939FBF0F90DF91CF911F910F910895C8
:100F5000CF93DF93282F30E0F901E859FF4F8491B8
:100F6000F901E458FF4FD491F901E057FF4FC491C4
:100F7000CC2391F081110E941007EC2FF0E0EE0FCE
:100F8000FF1FEC55FF4FA591B4912C912D2381E0CB
:100F900090E021F480E002C080E090E0DF91CF910A
:100FA00008950F931F93762F90E0FC01E458FF4FB4
:100FB0006491FC01E057FF4FE4917111762FF0E04E
:100FC000EE0FFF1FEC55FF4F8591949189019A0117
:100FD0003F70472F0E948D006115710581059105B5
:100FE00031F06F5F7F4F8F4F9F4F9F7003C060E066
:100FF00070E0CB011F910F910895FC01818D228D2E
:1010000090E0805C9F4F821B91098F739927089510
:10101000FC01918D828D981731F0828DE80FF11DC2
:10102000858D90E008958FEF9FEF0895FC01918DDD
:10103000828D981761F0828DDF01A80FB11D5D963A
:101040008C91928D9F5F9F73928F90E008958FEFA8
:101050009FEF08958AE999E0892B49F080E090E0BC
:10106000892B29F00E949A0981110C94000008959F
:10107000FC01848DDF01A80FB11DA35ABF4F2C9135
:10108000848D90E001968F739927848FA689B78904
:101090002C93A089B1898C9180648C93938D848DDD
:1010A000981306C00288F389E02D80818F7D8083AC
:1010B0000895CF93DF93EC01888D8823C9F0EA89E6
:1010C000FB89808185FD05C0A889B9898C9186FD41
:1010D0000FC00FB607FCF5CF808185FFF2CFA8893E
:1010E000B9898C9185FFEDCFCE010E943808E7CFFA
:1010F000DF91CF910895CF92DF92FF920F931F93CC
:10110000CF93DF931F92CDB7DEB76C0181E0D6019C
:1011100058968C9358975B969C915B975C968C91B4
:101120005C97981307C05096ED91FC915197808180
:1011300085FD2EC0F601038D10E00F5F1F4F0F736A
:101140001127F02EF601848DF81211C00FB607FC9E
:10115000F9CFD6015096ED91FC915197808185FF92
:10116000F1CFC60169830E9438086981EBCF838D76
:10117000E80FF11DE35AFF4F6083D6015B960C9395
:101180005B975296ED91FC915397808180620CC0E1
:10119000D6015696ED91FC91579760835096ED914C
:1011A000FC91519780818064808381E090E00F9072
:1011B000DF91CF911F910F91FF90DF90CF90089515
:1011C000BF92CF92DF92EF92FF92CF93DF93EC0129
:1011D0006A017B01B22EE889F98982E0808341159A
:1011E00081EE580761057105A1F060E079E08DE3BB
:1011F00090E0A70196010E94D40A215031094109CB
:1012000051095695479537952795211580E138075F
:1012100098F0E889F989108260E874E88EE190E03E
:10122000A70196010E94D40A2150310941095109B0
:101230005695479537952795EC85FD853083EE8546
:10124000FF852083188EEC89FD89B082EA89FB89AD
:10125000808180618083EA89FB89808188608083C6
:10126000EA89FB89808180688083EA89FB898081A3
:101270008F7D8083DF91CF91FF90EF90DF90CF90B3
:10128000BF9008951F920F920FB60F9211242F93C3
:101290008F939F93EF93FF93E0916401F091650129
:1012A0008081E0916A01F0916B0182FD12C0908112
:1012B00080916D018F5F8F7320916E01821751F0C5
:1012C000E0916D01F0E0EC5AFE4F958F80936D0137
:1012D00001C08081FF91EF919F918F912F910F908D
:1012E0000FBE0F901F9018951F920F920FB60F927E
:1012F00011242F933F934F935F936F937F938F931B
:101300009F93AF93BF93EF93FF9384E591E00E9487
:101310003808FF91EF91BF91AF919F918F917F918D
:101320006F915F914F913F912F910F900FBE0F9052
:101330001F90189584E591E00E94FD0721E0892B1C
:1013400009F420E0822F089510925701109256015F
:1013500088EE93E0A0E0B0E08093580190935901AB
:10136000A0935A01B0935B018EE091E090935501F8
:101370008093540185EC90E090936101809360012B
:1013800084EC90E0909363018093620180EC90E0A4
:10139000909365018093640181EC90E090936701E4
:1013A0008093660182EC90E09093690180936801DC
:1013B00086EC90E090936B0180936A0110926D012E
:1013C00010926E0110926F01109270010895CF92E9
:1013D000DF92EF92FF920F931F93CF93DF937C01E5
:1013E0006A01EB0100E010E00C151D0571F0699138
:1013F000D701ED91FC910190F081E02DC701099595
:10140000892B19F00F5F1F4FEFCFC801DF91CF91EC
:101410001F910F91FF90EF90DF90CF9008950F9361
:101420001F93CF93DF93EC010E941406688779879E
:101430008A879B87E881F9810680F781E02DCE01BC
:10144000099597FF15C00E941406088519852A85FD
:101450003B85601B710B820B930B0C811D812E81D0
:101460003F81601771078207930720F38FEF9FEF8B
:10147000DF91CF911F910F910895CF92DF92EF925C
:10148000FF920F931F93CF93DF937C016A01EB01CF
:1014900000E010E00C151D0549F0C7010E940F0A7D
:1014A00097FD04C089930F5F1F4FF4CFC801DF91F0
:1014B000CF911F910F91FF90EF90DF90CF90089503
:1014C0004F925F926F927F92AF92BF92CF92DF92D4
:1014D000EF92FF920F931F93CF93DF93CDB7DEB7B9
:1014E00029013A01621B730B840B950B29893A89F8
:1014F0004B895C892A193B094C095D09298B3A8B78
:101500004B8B5C8B9B01AC0169897A898B899C89A7
:101510000E94B80AE418F50806091709A8019701FE
:101520000E94F60A2A0D3B1D4C1D5D1DCA01B90122
:10153000DF91CF911F910F91FF90EF90DF90CF90AF
:10154000BF90AF907F906F905F904F9008950895F7
:101550000E9476060E94A70A0E94D200CAE2D8E042
:101560000E949A032097E1F30E942A08F9CF089578
:10157000DB018F939F930E94150BBF91AF91A29FA8
:10158000800D911DA39F900DB29F900D1124089581
:10159000991B79E004C0991F961708F0961B881FC5
:1015A0007A95C9F780950895A1E21A2EAA1BBB1B54
:1015B000FD010DC0AA1FBB1FEE1FFF1FA217B3071F
:1015C000E407F50720F0A21BB30BE40BF50B661F35
:1015D000771F881F991F1A9469F7609570958095F9
:1015E00090959B01AC01BD01CF010895052E97FB9D
:1015F0001EF400940E940D0B57FD07D00E94D40AE0
:1016000007FC03D04EF40C940D0B5095409530958B
:1016100021953F4F4F4F5F4F08959095809570955E
:1016200061957F4F8F4F9F4F08950E94260BA59F76
:10163000900DB49F900DA49F800D911D11240895CD
:10164000EE0FFF1F0590F491E02D0994A29FB001C9
:10165000B39FC001A39F700D811D1124911DB29FE6
:0E166000700D811D1124911D0895F894FFCF87
:10166E000000F101800001000000000000007B0876
:0A167E00E709FD07160808085908DF
:107E0000112484B714BE81FFF0D085E080938100F7
:107E100082E08093C00088E18093C10086E0809377
:107E2000C20080E18093C4008EE0C9D0259A86E02C
:107E300020E33CEF91E0309385002093840096BBD3
:107E4000B09BFECF1D9AA8958150A9F7CC24DD24C4
:107E500088248394B5E0AB2EA1E19A2EF3E0BF2EE7
:107E6000A2D0813461F49FD0082FAFD0023811F036
:107E7000013811F484E001C083E08DD089C08234E0
:107E800011F484E103C0853419F485E0A6D080C0E4
:107E9000853579F488D0E82EFF2485D0082F10E0AE
:107EA000102F00270E291F29000F111F8ED06801E7
:107EB0006FC0863521F484E090D080E0DECF843638
:107EC00009F040C070D06FD0082F6DD080E0C81688
:107ED00080E7D80618F4F601B7BEE895C0E0D1E017
:107EE00062D089930C17E1F7F0E0CF16F0E7DF06D8
:107EF00018F0F601B7BEE89568D007B600FCFDCFD4
:107F0000A601A0E0B1E02C9130E011968C91119780
:107F100090E0982F8827822B932B1296FA010C0160
:107F200087BEE89511244E5F5F4FF1E0A038BF0790
:107F300051F7F601A7BEE89507B600FCFDCF97BE46
:107F4000E89526C08437B1F42ED02DD0F82E2BD052
:107F50003CD0F601EF2C8F010F5F1F4F84911BD097
:107F6000EA94F801C1F70894C11CD11CFA94CF0C13
:107F7000D11C0EC0853739F428D08EE10CD085E9AC
:107F80000AD08FE07ACF813511F488E018D01DD067
:107F900080E101D065CF982F8091C00085FFFCCF94
:107FA0009093C60008958091C00087FFFCCF809118
:107FB000C00084FD01C0A8958091C6000895E0E648
:107FC000F0E098E1908380830895EDDF803219F02E
:107FD00088E0F5DFFFCF84E1DECF1F93182FE3DFCA
:107FE0001150E9F7F2DF1F91089580E0E8DFEE27F6
:047FF000FF270994CA
:027FFE00040479
:0400000300007E007B
:00000001FF
